{
  "contractName": "Validate",
  "abi": [
    {
      "inputs": [
        {
          "internalType": "uint256",
          "name": "",
          "type": "uint256"
        }
      ],
      "name": "hasharray",
      "outputs": [
        {
          "internalType": "string",
          "name": "",
          "type": "string"
        }
      ],
      "stateMutability": "view",
      "type": "function",
      "constant": true
    },
    {
      "inputs": [
        {
          "internalType": "string",
          "name": "_hash",
          "type": "string"
        }
      ],
      "name": "generate",
      "outputs": [],
      "stateMutability": "nonpayable",
      "type": "function"
    },
    {
      "inputs": [
        {
          "internalType": "string",
          "name": "_hash",
          "type": "string"
        }
      ],
      "name": "isValid",
      "outputs": [
        {
          "internalType": "bool",
          "name": "",
          "type": "bool"
        }
      ],
      "stateMutability": "view",
      "type": "function",
      "constant": true
    }
  ],
  "bytecode": "0x608060405234801561001057600080fd5b506109e0806100206000396000f3fe608060405234801561001057600080fd5b50600436106100415760003560e01c80630f167f8614610046578063c3d670fe14610076578063f1dfaefb14610092575b600080fd5b610060600480360381019061005b919061029d565b6100c2565b60405161006d9190610363565b60405180910390f35b610090600480360381019061008b91906104ba565b61016e565b005b6100ac60048036038101906100a791906104ba565b6101a6565b6040516100b9919061051e565b60405180910390f35b600081815481106100d257600080fd5b9060005260206000200160009150905080546100ed90610568565b80601f016020809104026020016040519081016040528092919081815260200182805461011990610568565b80156101665780601f1061013b57610100808354040283529160200191610166565b820191906000526020600020905b81548152906001019060200180831161014957829003601f168201915b505050505081565b6000819080600181540180825580915050600190039060005260206000200160009091909190915090816101a29190610745565b5050565b600080600090505b60008054905081101561024857600081815481106101cf576101ce610817565b5b906000526020600020016040516020016101e991906108d4565b6040516020818303038152906040528051906020012083604051602001610210919061091c565b604051602081830303815290604052805190602001200361023557600191505061024e565b808061024090610962565b9150506101ae565b50600090505b919050565b6000604051905090565b600080fd5b600080fd5b6000819050919050565b61027a81610267565b811461028557600080fd5b50565b60008135905061029781610271565b92915050565b6000602082840312156102b3576102b261025d565b5b60006102c184828501610288565b91505092915050565b600081519050919050565b600082825260208201905092915050565b60005b838110156103045780820151818401526020810190506102e9565b83811115610313576000848401525b50505050565b6000601f19601f8301169050919050565b6000610335826102ca565b61033f81856102d5565b935061034f8185602086016102e6565b61035881610319565b840191505092915050565b6000602082019050818103600083015261037d818461032a565b905092915050565b600080fd5b600080fd5b7f4e487b7100000000000000000000000000000000000000000000000000000000600052604160045260246000fd5b6103c782610319565b810181811067ffffffffffffffff821117156103e6576103e561038f565b5b80604052505050565b60006103f9610253565b905061040582826103be565b919050565b600067ffffffffffffffff8211156104255761042461038f565b5b61042e82610319565b9050602081019050919050565b82818337600083830152505050565b600061045d6104588461040a565b6103ef565b9050828152602081018484840111156104795761047861038a565b5b61048484828561043b565b509392505050565b600082601f8301126104a1576104a0610385565b5b81356104b184826020860161044a565b91505092915050565b6000602082840312156104d0576104cf61025d565b5b600082013567ffffffffffffffff8111156104ee576104ed610262565b5b6104fa8482850161048c565b91505092915050565b60008115159050919050565b61051881610503565b82525050565b6000602082019050610533600083018461050f565b92915050565b7f4e487b7100000000000000000000000000000000000000000000000000000000600052602260045260246000fd5b6000600282049050600182168061058057607f821691505b60208210810361059357610592610539565b5b50919050565b60008190508160005260206000209050919050565b60006020601f8301049050919050565b600082821b905092915050565b6000600883026105fb7fffffffffffffffffffffffffffffffffffffffffffffffffffffffffffffffff826105be565b61060586836105be565b95508019841693508086168417925050509392505050565b6000819050919050565b600061064261063d61063884610267565b61061d565b610267565b9050919050565b6000819050919050565b61065c83610627565b61067061066882610649565b8484546105cb565b825550505050565b600090565b610685610678565b610690818484610653565b505050565b5b818110156106b4576106a960008261067d565b600181019050610696565b5050565b601f8211156106f9576106ca81610599565b6106d3846105ae565b810160208510156106e2578190505b6106f66106ee856105ae565b830182610695565b50505b505050565b600082821c905092915050565b600061071c600019846008026106fe565b1980831691505092915050565b6000610735838361070b565b9150826002028217905092915050565b61074e826102ca565b67ffffffffffffffff8111156107675761076661038f565b5b6107718254610568565b61077c8282856106b8565b600060209050601f8311600181146107af576000841561079d578287015190505b6107a78582610729565b86555061080f565b601f1984166107bd86610599565b60005b828110156107e5578489015182556001820191506020850194506020810190506107c0565b8683101561080257848901516107fe601f89168261070b565b8355505b6001600288020188555050505b505050505050565b7f4e487b7100000000000000000000000000000000000000000000000000000000600052603260045260246000fd5b600081905092915050565b6000815461085e81610568565b6108688186610846565b945060018216600081146108835760018114610898576108cb565b60ff19831686528115158202860193506108cb565b6108a185610599565b60005b838110156108c3578154818901526001820191506020810190506108a4565b838801955050505b50505092915050565b60006108e08284610851565b915081905092915050565b60006108f6826102ca565b6109008185610846565b93506109108185602086016102e6565b80840191505092915050565b600061092882846108eb565b915081905092915050565b7f4e487b7100000000000000000000000000000000000000000000000000000000600052601160045260246000fd5b600061096d82610267565b91507fffffffffffffffffffffffffffffffffffffffffffffffffffffffffffffffff820361099f5761099e610933565b5b60018201905091905056fea26469706673582212207a30e3f5790d6521b35c7befcf0dbc76c25283189f97e027537d59484384fca464736f6c634300080f0033",
  "immutableReferences": {},
  "source": "//SPDX-License-Identifier: MIT\r\npragma solidity >=0.8.0 <0.9.0;\r\n\r\ncontract Validate{\r\n    \r\n    string[] public hasharray;\r\n\r\n\r\n    function generate(string memory _hash) public {\r\n        hasharray.push(_hash);\r\n    }\r\n\r\n    function isValid(string memory _hash) public view returns(bool) {\r\n        for(uint i=0;i<hasharray.length;i++){\r\n            if(keccak256(abi.encodePacked(_hash)) == keccak256(abi.encodePacked(hasharray[i]))){\r\n                return true ;\r\n            }\r\n        }\r\n        return false;\r\n    }\r\n\r\n\r\n}",
  "sourcePath": "C:\\Users\\91892\\Desktop\\D-Validator\\server\\contracts\\Validate.sol",
  "compiler": {
    "name": "solc",
    "version": "0.8.15+commit.e14f2714.Emscripten.clang"
  },
  "schemaVersion": "3.4.8",
  "updatedAt": "2022-10-09T13:52:51.535Z",
  "networkType": "ethereum",
  "devdoc": {
    "kind": "dev",
    "methods": {},
    "version": 1
  },
  "userdoc": {
    "kind": "user",
    "methods": {},
    "version": 1
  }
}